{"abi":[{"type":"constructor","inputs":[{"name":"initialOwner","type":"address","internalType":"address"},{"name":"baseURI_","type":"string","internalType":"string"}],"stateMutability":"nonpayable"},{"type":"function","name":"EDITION_MULTIPLIER","inputs":[],"outputs":[{"name":"","type":"uint256","internalType":"uint256"}],"stateMutability":"view"},{"type":"function","name":"balanceOf","inputs":[{"name":"account","type":"address","internalType":"address"},{"name":"id","type":"uint256","internalType":"uint256"}],"outputs":[{"name":"","type":"uint256","internalType":"uint256"}],"stateMutability":"view"},{"type":"function","name":"balanceOfBatch","inputs":[{"name":"accounts","type":"address[]","internalType":"address[]"},{"name":"ids","type":"uint256[]","internalType":"uint256[]"}],"outputs":[{"name":"","type":"uint256[]","internalType":"uint256[]"}],"stateMutability":"view"},{"type":"function","name":"baseURI","inputs":[],"outputs":[{"name":"","type":"string","internalType":"string"}],"stateMutability":"view"},{"type":"function","name":"bookURI","inputs":[{"name":"edition","type":"uint256","internalType":"uint256"},{"name":"item","type":"uint256","internalType":"uint256"}],"outputs":[{"name":"","type":"string","internalType":"string"}],"stateMutability":"view"},{"type":"function","name":"decodeTokenId","inputs":[{"name":"tokenId","type":"uint256","internalType":"uint256"}],"outputs":[{"name":"edition","type":"uint256","internalType":"uint256"},{"name":"item","type":"uint256","internalType":"uint256"}],"stateMutability":"pure"},{"type":"function","name":"encodeTokenId","inputs":[{"name":"edition","type":"uint256","internalType":"uint256"},{"name":"item","type":"uint256","internalType":"uint256"}],"outputs":[{"name":"","type":"uint256","internalType":"uint256"}],"stateMutability":"pure"},{"type":"function","name":"isApprovedForAll","inputs":[{"name":"account","type":"address","internalType":"address"},{"name":"operator","type":"address","internalType":"address"}],"outputs":[{"name":"","type":"bool","internalType":"bool"}],"stateMutability":"view"},{"type":"function","name":"mint","inputs":[{"name":"to","type":"address","internalType":"address"},{"name":"edition","type":"uint256","internalType":"uint256"},{"name":"item","type":"uint256","internalType":"uint256"}],"outputs":[],"stateMutability":"nonpayable"},{"type":"function","name":"mintBatch","inputs":[{"name":"to","type":"address","internalType":"address"},{"name":"editions","type":"uint256[]","internalType":"uint256[]"},{"name":"items","type":"uint256[]","internalType":"uint256[]"}],"outputs":[],"stateMutability":"nonpayable"},{"type":"function","name":"owner","inputs":[],"outputs":[{"name":"","type":"address","internalType":"address"}],"stateMutability":"view"},{"type":"function","name":"renounceOwnership","inputs":[],"outputs":[],"stateMutability":"nonpayable"},{"type":"function","name":"safeBatchTransferFrom","inputs":[{"name":"from","type":"address","internalType":"address"},{"name":"to","type":"address","internalType":"address"},{"name":"ids","type":"uint256[]","internalType":"uint256[]"},{"name":"values","type":"uint256[]","internalType":"uint256[]"},{"name":"data","type":"bytes","internalType":"bytes"}],"outputs":[],"stateMutability":"nonpayable"},{"type":"function","name":"safeTransferFrom","inputs":[{"name":"from","type":"address","internalType":"address"},{"name":"to","type":"address","internalType":"address"},{"name":"id","type":"uint256","internalType":"uint256"},{"name":"value","type":"uint256","internalType":"uint256"},{"name":"data","type":"bytes","internalType":"bytes"}],"outputs":[],"stateMutability":"nonpayable"},{"type":"function","name":"setApprovalForAll","inputs":[{"name":"operator","type":"address","internalType":"address"},{"name":"approved","type":"bool","internalType":"bool"}],"outputs":[],"stateMutability":"nonpayable"},{"type":"function","name":"setBaseURI","inputs":[{"name":"newBaseURI","type":"string","internalType":"string"}],"outputs":[],"stateMutability":"nonpayable"},{"type":"function","name":"setTokenURI","inputs":[{"name":"tokenId","type":"uint256","internalType":"uint256"},{"name":"tokenURI","type":"string","internalType":"string"}],"outputs":[],"stateMutability":"nonpayable"},{"type":"function","name":"setTokenURI","inputs":[{"name":"edition","type":"uint256","internalType":"uint256"},{"name":"item","type":"uint256","internalType":"uint256"},{"name":"tokenURI","type":"string","internalType":"string"}],"outputs":[],"stateMutability":"nonpayable"},{"type":"function","name":"supportsInterface","inputs":[{"name":"interfaceId","type":"bytes4","internalType":"bytes4"}],"outputs":[{"name":"","type":"bool","internalType":"bool"}],"stateMutability":"view"},{"type":"function","name":"transferOwnership","inputs":[{"name":"newOwner","type":"address","internalType":"address"}],"outputs":[],"stateMutability":"nonpayable"},{"type":"function","name":"uri","inputs":[{"name":"tokenId","type":"uint256","internalType":"uint256"}],"outputs":[{"name":"","type":"string","internalType":"string"}],"stateMutability":"view"},{"type":"event","name":"ApprovalForAll","inputs":[{"name":"account","type":"address","indexed":true,"internalType":"address"},{"name":"operator","type":"address","indexed":true,"internalType":"address"},{"name":"approved","type":"bool","indexed":false,"internalType":"bool"}],"anonymous":false},{"type":"event","name":"BookBatchMinted","inputs":[{"name":"to","type":"address","indexed":true,"internalType":"address"},{"name":"editions","type":"uint256[]","indexed":false,"internalType":"uint256[]"},{"name":"items","type":"uint256[]","indexed":false,"internalType":"uint256[]"}],"anonymous":false},{"type":"event","name":"BookMinted","inputs":[{"name":"to","type":"address","indexed":true,"internalType":"address"},{"name":"edition","type":"uint256","indexed":true,"internalType":"uint256"},{"name":"item","type":"uint256","indexed":true,"internalType":"uint256"}],"anonymous":false},{"type":"event","name":"OwnershipTransferred","inputs":[{"name":"previousOwner","type":"address","indexed":true,"internalType":"address"},{"name":"newOwner","type":"address","indexed":true,"internalType":"address"}],"anonymous":false},{"type":"event","name":"TokenURISet","inputs":[{"name":"tokenId","type":"uint256","indexed":true,"internalType":"uint256"},{"name":"uri","type":"string","indexed":false,"internalType":"string"}],"anonymous":false},{"type":"event","name":"TransferBatch","inputs":[{"name":"operator","type":"address","indexed":true,"internalType":"address"},{"name":"from","type":"address","indexed":true,"internalType":"address"},{"name":"to","type":"address","indexed":true,"internalType":"address"},{"name":"ids","type":"uint256[]","indexed":false,"internalType":"uint256[]"},{"name":"values","type":"uint256[]","indexed":false,"internalType":"uint256[]"}],"anonymous":false},{"type":"event","name":"TransferSingle","inputs":[{"name":"operator","type":"address","indexed":true,"internalType":"address"},{"name":"from","type":"address","indexed":true,"internalType":"address"},{"name":"to","type":"address","indexed":true,"internalType":"address"},{"name":"id","type":"uint256","indexed":false,"internalType":"uint256"},{"name":"value","type":"uint256","indexed":false,"internalType":"uint256"}],"anonymous":false},{"type":"event","name":"URI","inputs":[{"name":"value","type":"string","indexed":false,"internalType":"string"},{"name":"id","type":"uint256","indexed":true,"internalType":"uint256"}],"anonymous":false},{"type":"error","name":"ERC1155InsufficientBalance","inputs":[{"name":"sender","type":"address","internalType":"address"},{"name":"balance","type":"uint256","internalType":"uint256"},{"name":"needed","type":"uint256","internalType":"uint256"},{"name":"tokenId","type":"uint256","internalType":"uint256"}]},{"type":"error","name":"ERC1155InvalidApprover","inputs":[{"name":"approver","type":"address","internalType":"address"}]},{"type":"error","name":"ERC1155InvalidArrayLength","inputs":[{"name":"idsLength","type":"uint256","internalType":"uint256"},{"name":"valuesLength","type":"uint256","internalType":"uint256"}]},{"type":"error","name":"ERC1155InvalidOperator","inputs":[{"name":"operator","type":"address","internalType":"address"}]},{"type":"error","name":"ERC1155InvalidReceiver","inputs":[{"name":"receiver","type":"address","internalType":"address"}]},{"type":"error","name":"ERC1155InvalidSender","inputs":[{"name":"sender","type":"address","internalType":"address"}]},{"type":"error","name":"ERC1155MissingApprovalForAll","inputs":[{"name":"operator","type":"address","internalType":"address"},{"name":"owner","type":"address","internalType":"address"}]},{"type":"error","name":"OwnableInvalidOwner","inputs":[{"name":"owner","type":"address","internalType":"address"}]},{"type":"error","name":"OwnableUnauthorizedAccount","inputs":[{"name":"account","type":"address","internalType":"address"}]}],"bytecode":{"object":"0x608060405234801562000010575f80fd5b5060405162003ba438038062003ba48339818101604052810190620000369190620003a7565b81816200004981620000e960201b60201c565b505f73ffffffffffffffffffffffffffffffffffffffff168173ffffffffffffffffffffffffffffffffffffffff1603620000bd575f6040517f1e4fbdf7000000000000000000000000000000000000000000000000000000008152600401620000b491906200041c565b60405180910390fd5b620000ce81620000fe60201b60201c565b508060049081620000e091906200066e565b50505062000752565b8060029081620000fa91906200066e565b5050565b5f60035f9054906101000a900473ffffffffffffffffffffffffffffffffffffffff1690508160035f6101000a81548173ffffffffffffffffffffffffffffffffffffffff021916908373ffffffffffffffffffffffffffffffffffffffff1602179055508173ffffffffffffffffffffffffffffffffffffffff168173ffffffffffffffffffffffffffffffffffffffff167f8be0079c531659141344cd1fd0a4f28419497f9722a3daafe3b4186f6b6457e060405160405180910390a35050565b5f604051905090565b5f80fd5b5f80fd5b5f73ffffffffffffffffffffffffffffffffffffffff82169050919050565b5f620001fd82620001d2565b9050919050565b6200020f81620001f1565b81146200021a575f80fd5b50565b5f815190506200022d8162000204565b92915050565b5f80fd5b5f80fd5b5f601f19601f8301169050919050565b7f4e487b71000000000000000000000000000000000000000000000000000000005f52604160045260245ffd5b62000283826200023b565b810181811067ffffffffffffffff82111715620002a557620002a46200024b565b5b80604052505050565b5f620002b9620001c1565b9050620002c7828262000278565b919050565b5f67ffffffffffffffff821115620002e957620002e86200024b565b5b620002f4826200023b565b9050602081019050919050565b5f5b838110156200032057808201518184015260208101905062000303565b5f8484015250505050565b5f620003416200033b84620002cc565b620002ae565b90508281526020810184848401111562000360576200035f62000237565b5b6200036d84828562000301565b509392505050565b5f82601f8301126200038c576200038b62000233565b5b81516200039e8482602086016200032b565b91505092915050565b5f8060408385031215620003c057620003bf620001ca565b5b5f620003cf858286016200021d565b925050602083015167ffffffffffffffff811115620003f357620003f2620001ce565b5b620004018582860162000375565b9150509250929050565b6200041681620001f1565b82525050565b5f602082019050620004315f8301846200040b565b92915050565b5f81519050919050565b7f4e487b71000000000000000000000000000000000000000000000000000000005f52602260045260245ffd5b5f60028204905060018216806200048657607f821691505b6020821081036200049c576200049b62000441565b5b50919050565b5f819050815f5260205f209050919050565b5f6020601f8301049050919050565b5f82821b905092915050565b5f60088302620005007fffffffffffffffffffffffffffffffffffffffffffffffffffffffffffffffff82620004c3565b6200050c8683620004c3565b95508019841693508086168417925050509392505050565b5f819050919050565b5f819050919050565b5f62000556620005506200054a8462000524565b6200052d565b62000524565b9050919050565b5f819050919050565b620005718362000536565b6200058962000580826200055d565b848454620004cf565b825550505050565b5f90565b6200059f62000591565b620005ac81848462000566565b505050565b5b81811015620005d357620005c75f8262000595565b600181019050620005b2565b5050565b601f8211156200062257620005ec81620004a2565b620005f784620004b4565b8101602085101562000607578190505b6200061f6200061685620004b4565b830182620005b1565b50505b505050565b5f82821c905092915050565b5f620006445f198460080262000627565b1980831691505092915050565b5f6200065e838362000633565b9150826002028217905092915050565b620006798262000437565b67ffffffffffffffff8111156200069557620006946200024b565b5b620006a182546200046e565b620006ae828285620005d7565b5f60209050601f831160018114620006e4575f8415620006cf578287015190505b620006db858262000651565b8655506200074a565b601f198416620006f486620004a2565b5f5b828110156200071d57848901518255600182019150602085019450602081019050620006f6565b868310156200073d578489015162000739601f89168262000633565b8355505b6001600288020188555050505b505050505050565b61344480620007605f395ff3fe608060405234801561000f575f80fd5b5060043610610134575f3560e01c80636c0360eb116100b6578063d81d0a151161007a578063d81d0a1514610335578063e985e9c514610351578063ebd46d6414610381578063f154da38146103b1578063f242432a146103e1578063f2fde38b146103fd57610134565b80636c0360eb146102a2578063715018a6146102c05780637efd9112146102ca5780638da5cb5b146102fb578063a22cb4651461031957610134565b80631b859cb2116100fd5780631b859cb2146102005780632eb2c2d61461021e5780634e1273f41461023a57806353bb0ab31461026a57806355f804b31461028657610134565b8062fdd58e1461013857806301ffc9a7146101685780630e89341c14610198578063156e29f6146101c8578063162094c4146101e4575b5f80fd5b610152600480360381019061014d91906120d0565b610419565b60405161015f919061211d565b60405180910390f35b610182600480360381019061017d919061218b565b61046e565b60405161018f91906121d0565b60405180910390f35b6101b260048036038101906101ad91906121e9565b61054f565b6040516101bf919061229e565b60405180910390f35b6101e260048036038101906101dd91906122be565b610632565b005b6101fe60048036038101906101f9919061243a565b610711565b005b610208610774565b604051610215919061211d565b60405180910390f35b610238600480360381019061023391906125f6565b61077b565b005b610254600480360381019061024f9190612781565b610822565b60405161026191906128ae565b60405180910390f35b610284600480360381019061027f91906128ce565b610929565b005b6102a0600480360381019061029b919061293a565b61099b565b005b6102aa6109bf565b6040516102b7919061229e565b60405180910390f35b6102c8610a4f565b005b6102e460048036038101906102df91906121e9565b610a62565b6040516102f2929190612981565b60405180910390f35b610303610a8b565b60405161031091906129b7565b60405180910390f35b610333600480360381019061032e91906129fa565b610ab3565b005b61034f600480360381019061034a9190612a38565b610ac9565b005b61036b60048036038101906103669190612ac0565b610d69565b60405161037891906121d0565b60405180910390f35b61039b60048036038101906103969190612afe565b610df7565b6040516103a8919061211d565b60405180910390f35b6103cb60048036038101906103c69190612afe565b610e5f565b6040516103d8919061229e565b60405180910390f35b6103fb60048036038101906103f69190612b3c565b610e80565b005b61041760048036038101906104129190612bcf565b610f27565b005b5f805f8381526020019081526020015f205f8473ffffffffffffffffffffffffffffffffffffffff1673ffffffffffffffffffffffffffffffffffffffff1681526020019081526020015f2054905092915050565b5f7fd9b67a26000000000000000000000000000000000000000000000000000000007bffffffffffffffffffffffffffffffffffffffffffffffffffffffff1916827bffffffffffffffffffffffffffffffffffffffffffffffffffffffff1916148061053857507f0e89341c000000000000000000000000000000000000000000000000000000007bffffffffffffffffffffffffffffffffffffffffffffffffffffffff1916827bffffffffffffffffffffffffffffffffffffffffffffffffffffffff1916145b80610548575061054782610fab565b5b9050919050565b60605f60055f8481526020019081526020015f20805461056e90612c27565b80601f016020809104026020016040519081016040528092919081815260200182805461059a90612c27565b80156105e55780601f106105bc576101008083540402835291602001916105e5565b820191905f5260205f20905b8154815290600101906020018083116105c857829003601f168201915b505050505090505f815111156105fe578091505061062d565b600461060984611014565b60405160200161061a929190612d6d565b6040516020818303038152906040529150505b919050565b61063a6110de565b5f6106458383610df7565b90505f61065182611165565b905061066e8583600160405180602001604052805f815250611199565b8060055f8481526020019081526020015f20908161068c9190612f26565b50817fda84ca2183491f179a603e877b2cb058e42195041c2b9c53d746427e519a34df826040516106bd919061229e565b60405180910390a282848673ffffffffffffffffffffffffffffffffffffffff167f537c18cdc5ae58e37081e5a67cf6cda523bd9d889b1d7a31a5e2d4a2377a29c260405160405180910390a45050505050565b6107196110de565b8060055f8481526020019081526020015f2090816107379190612f26565b50817fda84ca2183491f179a603e877b2cb058e42195041c2b9c53d746427e519a34df82604051610768919061229e565b60405180910390a25050565b620f424081565b5f61078461122e565b90508073ffffffffffffffffffffffffffffffffffffffff168673ffffffffffffffffffffffffffffffffffffffff16141580156107c957506107c78682610d69565b155b1561080d5780866040517fe237d922000000000000000000000000000000000000000000000000000000008152600401610804929190612ff5565b60405180910390fd5b61081a8686868686611235565b505050505050565b6060815183511461086e57815183516040517f5b059991000000000000000000000000000000000000000000000000000000008152600401610865929190612981565b60405180910390fd5b5f835167ffffffffffffffff81111561088a57610889612316565b5b6040519080825280602002602001820160405280156108b85781602001602082028036833780820191505090505b5090505f5b845181101561091e576108f46108dc828761132990919063ffffffff16565b6108ef838761133c90919063ffffffff16565b610419565b8282815181106109075761090661301c565b5b6020026020010181815250508060010190506108bd565b508091505092915050565b6109316110de565b5f61093c8484610df7565b90508160055f8381526020019081526020015f20908161095c9190612f26565b50807fda84ca2183491f179a603e877b2cb058e42195041c2b9c53d746427e519a34df8360405161098d919061229e565b60405180910390a250505050565b6109a36110de565b80600490816109b29190612f26565b506109bc8161134f565b50565b6060600480546109ce90612c27565b80601f01602080910402602001604051908101604052809291908181526020018280546109fa90612c27565b8015610a455780601f10610a1c57610100808354040283529160200191610a45565b820191905f5260205f20905b815481529060010190602001808311610a2857829003601f168201915b5050505050905090565b610a576110de565b610a605f611362565b565b5f80620f424083610a7391906130a3565b9150620f424083610a8491906130d3565b9050915091565b5f60035f9054906101000a900473ffffffffffffffffffffffffffffffffffffffff16905090565b610ac5610abe61122e565b8383611425565b5050565b610ad16110de565b8051825114610b15576040517f08c379a0000000000000000000000000000000000000000000000000000000008152600401610b0c9061314d565b60405180910390fd5b5f825167ffffffffffffffff811115610b3157610b30612316565b5b604051908082528060200260200182016040528015610b5f5781602001602082028036833780820191505090505b5090505f835167ffffffffffffffff811115610b7e57610b7d612316565b5b604051908082528060200260200182016040528015610bac5781602001602082028036833780820191505090505b5090505f5b8451811015610cf757610bf8858281518110610bd057610bcf61301c565b5b6020026020010151858381518110610beb57610bea61301c565b5b6020026020010151610df7565b838281518110610c0b57610c0a61301c565b5b6020026020010181815250506001828281518110610c2c57610c2b61301c565b5b6020026020010181815250505f610c5c848381518110610c4f57610c4e61301c565b5b6020026020010151611165565b90508060055f868581518110610c7557610c7461301c565b5b602002602001015181526020019081526020015f209081610c969190612f26565b50838281518110610caa57610ca961301c565b5b60200260200101517fda84ca2183491f179a603e877b2cb058e42195041c2b9c53d746427e519a34df82604051610ce1919061229e565b60405180910390a2508080600101915050610bb1565b50610d1285838360405180602001604052805f81525061158e565b8473ffffffffffffffffffffffffffffffffffffffff167fffee25920663d2e7b033e0287cbc71213fd8c064c83b333828c1f15c0b6c75b58585604051610d5a92919061316b565b60405180910390a25050505050565b5f60015f8473ffffffffffffffffffffffffffffffffffffffff1673ffffffffffffffffffffffffffffffffffffffff1681526020019081526020015f205f8373ffffffffffffffffffffffffffffffffffffffff1673ffffffffffffffffffffffffffffffffffffffff1681526020019081526020015f205f9054906101000a900460ff16905092915050565b5f620f42408210610e3d576040517f08c379a0000000000000000000000000000000000000000000000000000000008152600401610e34906131ea565b60405180910390fd5b81620f424084610e4d9190613208565b610e579190613249565b905092915050565b60605f610e6c8484610df7565b9050610e778161054f565b91505092915050565b5f610e8961122e565b90508073ffffffffffffffffffffffffffffffffffffffff168673ffffffffffffffffffffffffffffffffffffffff1614158015610ece5750610ecc8682610d69565b155b15610f125780866040517fe237d922000000000000000000000000000000000000000000000000000000008152600401610f09929190612ff5565b60405180910390fd5b610f1f8686868686611611565b505050505050565b610f2f6110de565b5f73ffffffffffffffffffffffffffffffffffffffff168173ffffffffffffffffffffffffffffffffffffffff1603610f9f575f6040517f1e4fbdf7000000000000000000000000000000000000000000000000000000008152600401610f9691906129b7565b60405180910390fd5b610fa881611362565b50565b5f7f01ffc9a7000000000000000000000000000000000000000000000000000000007bffffffffffffffffffffffffffffffffffffffffffffffffffffffff1916827bffffffffffffffffffffffffffffffffffffffffffffffffffffffff1916149050919050565b60605f600161102284611717565b0190505f8167ffffffffffffffff8111156110405761103f612316565b5b6040519080825280601f01601f1916602001820160405280156110725781602001600182028036833780820191505090505b5090505f82602001820190505b6001156110d3578080600190039150507f3031323334353637383961626364656600000000000000000000000000000000600a86061a8153600a85816110c8576110c7613049565b5b0494505f850361107f575b819350505050919050565b6110e661122e565b73ffffffffffffffffffffffffffffffffffffffff16611104610a8b565b73ffffffffffffffffffffffffffffffffffffffff16146111635761112761122e565b6040517f118cdaa700000000000000000000000000000000000000000000000000000000815260040161115a91906129b7565b60405180910390fd5b565b6060600461117283611014565b604051602001611183929190612d6d565b6040516020818303038152906040529050919050565b5f73ffffffffffffffffffffffffffffffffffffffff168473ffffffffffffffffffffffffffffffffffffffff1603611209575f6040517f57f447ce00000000000000000000000000000000000000000000000000000000815260040161120091906129b7565b60405180910390fd5b5f806112158585611868565b915091506112265f87848487611898565b505050505050565b5f33905090565b5f73ffffffffffffffffffffffffffffffffffffffff168473ffffffffffffffffffffffffffffffffffffffff16036112a5575f6040517f57f447ce00000000000000000000000000000000000000000000000000000000815260040161129c91906129b7565b60405180910390fd5b5f73ffffffffffffffffffffffffffffffffffffffff168573ffffffffffffffffffffffffffffffffffffffff1603611315575f6040517f01a8351400000000000000000000000000000000000000000000000000000000815260040161130c91906129b7565b60405180910390fd5b6113228585858585611898565b5050505050565b5f60208202602084010151905092915050565b5f60208202602084010151905092915050565b806002908161135e9190612f26565b5050565b5f60035f9054906101000a900473ffffffffffffffffffffffffffffffffffffffff1690508160035f6101000a81548173ffffffffffffffffffffffffffffffffffffffff021916908373ffffffffffffffffffffffffffffffffffffffff1602179055508173ffffffffffffffffffffffffffffffffffffffff168173ffffffffffffffffffffffffffffffffffffffff167f8be0079c531659141344cd1fd0a4f28419497f9722a3daafe3b4186f6b6457e060405160405180910390a35050565b5f73ffffffffffffffffffffffffffffffffffffffff168273ffffffffffffffffffffffffffffffffffffffff1603611495575f6040517fced3e10000000000000000000000000000000000000000000000000000000000815260040161148c91906129b7565b60405180910390fd5b8060015f8573ffffffffffffffffffffffffffffffffffffffff1673ffffffffffffffffffffffffffffffffffffffff1681526020019081526020015f205f8473ffffffffffffffffffffffffffffffffffffffff1673ffffffffffffffffffffffffffffffffffffffff1681526020019081526020015f205f6101000a81548160ff0219169083151502179055508173ffffffffffffffffffffffffffffffffffffffff168373ffffffffffffffffffffffffffffffffffffffff167f17307eab39ab6107e8899845ad3d59bd9653f200f220920489ca2b5937696c318360405161158191906121d0565b60405180910390a3505050565b5f73ffffffffffffffffffffffffffffffffffffffff168473ffffffffffffffffffffffffffffffffffffffff16036115fe575f6040517f57f447ce0000000000000000000000000000000000000000000000000000000081526004016115f591906129b7565b60405180910390fd5b61160b5f85858585611898565b50505050565b5f73ffffffffffffffffffffffffffffffffffffffff168473ffffffffffffffffffffffffffffffffffffffff1603611681575f6040517f57f447ce00000000000000000000000000000000000000000000000000000000815260040161167891906129b7565b60405180910390fd5b5f73ffffffffffffffffffffffffffffffffffffffff168573ffffffffffffffffffffffffffffffffffffffff16036116f1575f6040517f01a835140000000000000000000000000000000000000000000000000000000081526004016116e891906129b7565b60405180910390fd5b5f806116fd8585611868565b9150915061170e8787848487611898565b50505050505050565b5f805f90507a184f03e93ff9f4daa797ed6e38ed64bf6a1f0100000000000000008310611773577a184f03e93ff9f4daa797ed6e38ed64bf6a1f010000000000000000838161176957611768613049565b5b0492506040810190505b6d04ee2d6d415b85acef810000000083106117b0576d04ee2d6d415b85acef810000000083816117a6576117a5613049565b5b0492506020810190505b662386f26fc1000083106117df57662386f26fc1000083816117d5576117d4613049565b5b0492506010810190505b6305f5e1008310611808576305f5e10083816117fe576117fd613049565b5b0492506008810190505b612710831061182d57612710838161182357611822613049565b5b0492506004810190505b60648310611850576064838161184657611845613049565b5b0492506002810190505b600a831061185f576001810190505b80915050919050565b60608060405191506001825283602083015260408201905060018152826020820152604081016040529250929050565b6118a485858585611944565b5f73ffffffffffffffffffffffffffffffffffffffff168473ffffffffffffffffffffffffffffffffffffffff161461193d575f6118e061122e565b9050600184510361192c575f6118ff5f8661133c90919063ffffffff16565b90505f6119155f8661133c90919063ffffffff16565b9050611925838989858589611cd4565b505061193b565b61193a818787878787611e83565b5b505b5050505050565b805182511461198e57815181516040517f5b059991000000000000000000000000000000000000000000000000000000008152600401611985929190612981565b60405180910390fd5b5f61199761122e565b90505f5b8351811015611b93575f6119b8828661133c90919063ffffffff16565b90505f6119ce838661133c90919063ffffffff16565b90505f73ffffffffffffffffffffffffffffffffffffffff168873ffffffffffffffffffffffffffffffffffffffff1614611af1575f805f8481526020019081526020015f205f8a73ffffffffffffffffffffffffffffffffffffffff1673ffffffffffffffffffffffffffffffffffffffff1681526020019081526020015f2054905081811015611a9d57888183856040517f03dee4c5000000000000000000000000000000000000000000000000000000008152600401611a94949392919061327c565b60405180910390fd5b8181035f808581526020019081526020015f205f8b73ffffffffffffffffffffffffffffffffffffffff1673ffffffffffffffffffffffffffffffffffffffff1681526020019081526020015f2081905550505b5f73ffffffffffffffffffffffffffffffffffffffff168773ffffffffffffffffffffffffffffffffffffffff1614611b8657805f808481526020019081526020015f205f8973ffffffffffffffffffffffffffffffffffffffff1673ffffffffffffffffffffffffffffffffffffffff1681526020019081526020015f205f828254611b7e9190613249565b925050819055505b505080600101905061199b565b506001835103611c4e575f611bb15f8561133c90919063ffffffff16565b90505f611bc75f8561133c90919063ffffffff16565b90508573ffffffffffffffffffffffffffffffffffffffff168773ffffffffffffffffffffffffffffffffffffffff168473ffffffffffffffffffffffffffffffffffffffff167fc3d58168c5ae7397731d063d5bbf3d657854427343f4c083240f7aacaa2d0f628585604051611c3f929190612981565b60405180910390a45050611ccd565b8373ffffffffffffffffffffffffffffffffffffffff168573ffffffffffffffffffffffffffffffffffffffff168273ffffffffffffffffffffffffffffffffffffffff167f4a39dc06d4c0dbc64b70af90fd698a233a518aa5d07e595d983b8c0526c8f7fb8686604051611cc492919061316b565b60405180910390a45b5050505050565b5f8473ffffffffffffffffffffffffffffffffffffffff163b1115611e7b578373ffffffffffffffffffffffffffffffffffffffff1663f23a6e6187878686866040518663ffffffff1660e01b8152600401611d34959493929190613311565b6020604051808303815f875af1925050508015611d6f57506040513d601f19601f82011682018060405250810190611d6c919061337d565b60015b611df0573d805f8114611d9d576040519150601f19603f3d011682016040523d82523d5f602084013e611da2565b606091505b505f815103611de857846040517f57f447ce000000000000000000000000000000000000000000000000000000008152600401611ddf91906129b7565b60405180910390fd5b805181602001fd5b63f23a6e6160e01b7bffffffffffffffffffffffffffffffffffffffffffffffffffffffff1916817bffffffffffffffffffffffffffffffffffffffffffffffffffffffff191614611e7957846040517f57f447ce000000000000000000000000000000000000000000000000000000008152600401611e7091906129b7565b60405180910390fd5b505b505050505050565b5f8473ffffffffffffffffffffffffffffffffffffffff163b111561202a578373ffffffffffffffffffffffffffffffffffffffff1663bc197c8187878686866040518663ffffffff1660e01b8152600401611ee39594939291906133a8565b6020604051808303815f875af1925050508015611f1e57506040513d601f19601f82011682018060405250810190611f1b919061337d565b60015b611f9f573d805f8114611f4c576040519150601f19603f3d011682016040523d82523d5f602084013e611f51565b606091505b505f815103611f9757846040517f57f447ce000000000000000000000000000000000000000000000000000000008152600401611f8e91906129b7565b60405180910390fd5b805181602001fd5b63bc197c8160e01b7bffffffffffffffffffffffffffffffffffffffffffffffffffffffff1916817bffffffffffffffffffffffffffffffffffffffffffffffffffffffff19161461202857846040517f57f447ce00000000000000000000000000000000000000000000000000000000815260040161201f91906129b7565b60405180910390fd5b505b505050505050565b5f604051905090565b5f80fd5b5f80fd5b5f73ffffffffffffffffffffffffffffffffffffffff82169050919050565b5f61206c82612043565b9050919050565b61207c81612062565b8114612086575f80fd5b50565b5f8135905061209781612073565b92915050565b5f819050919050565b6120af8161209d565b81146120b9575f80fd5b50565b5f813590506120ca816120a6565b92915050565b5f80604083850312156120e6576120e561203b565b5b5f6120f385828601612089565b9250506020612104858286016120bc565b9150509250929050565b6121178161209d565b82525050565b5f6020820190506121305f83018461210e565b92915050565b5f7fffffffff0000000000000000000000000000000000000000000000000000000082169050919050565b61216a81612136565b8114612174575f80fd5b50565b5f8135905061218581612161565b92915050565b5f602082840312156121a05761219f61203b565b5b5f6121ad84828501612177565b91505092915050565b5f8115159050919050565b6121ca816121b6565b82525050565b5f6020820190506121e35f8301846121c1565b92915050565b5f602082840312156121fe576121fd61203b565b5b5f61220b848285016120bc565b91505092915050565b5f81519050919050565b5f82825260208201905092915050565b5f5b8381101561224b578082015181840152602081019050612230565b5f8484015250505050565b5f601f19601f8301169050919050565b5f61227082612214565b61227a818561221e565b935061228a81856020860161222e565b61229381612256565b840191505092915050565b5f6020820190508181035f8301526122b68184612266565b905092915050565b5f805f606084860312156122d5576122d461203b565b5b5f6122e286828701612089565b93505060206122f3868287016120bc565b9250506040612304868287016120bc565b9150509250925092565b5f80fd5b5f80fd5b7f4e487b71000000000000000000000000000000000000000000000000000000005f52604160045260245ffd5b61234c82612256565b810181811067ffffffffffffffff8211171561236b5761236a612316565b5b80604052505050565b5f61237d612032565b90506123898282612343565b919050565b5f67ffffffffffffffff8211156123a8576123a7612316565b5b6123b182612256565b9050602081019050919050565b828183375f83830152505050565b5f6123de6123d98461238e565b612374565b9050828152602081018484840111156123fa576123f9612312565b5b6124058482856123be565b509392505050565b5f82601f8301126124215761242061230e565b5b81356124318482602086016123cc565b91505092915050565b5f80604083850312156124505761244f61203b565b5b5f61245d858286016120bc565b925050602083013567ffffffffffffffff81111561247e5761247d61203f565b5b61248a8582860161240d565b9150509250929050565b5f67ffffffffffffffff8211156124ae576124ad612316565b5b602082029050602081019050919050565b5f80fd5b5f6124d56124d084612494565b612374565b905080838252602082019050602084028301858111156124f8576124f76124bf565b5b835b81811015612521578061250d88826120bc565b8452602084019350506020810190506124fa565b5050509392505050565b5f82601f83011261253f5761253e61230e565b5b813561254f8482602086016124c3565b91505092915050565b5f67ffffffffffffffff82111561257257612571612316565b5b61257b82612256565b9050602081019050919050565b5f61259a61259584612558565b612374565b9050828152602081018484840111156125b6576125b5612312565b5b6125c18482856123be565b509392505050565b5f82601f8301126125dd576125dc61230e565b5b81356125ed848260208601612588565b91505092915050565b5f805f805f60a0868803121561260f5761260e61203b565b5b5f61261c88828901612089565b955050602061262d88828901612089565b945050604086013567ffffffffffffffff81111561264e5761264d61203f565b5b61265a8882890161252b565b935050606086013567ffffffffffffffff81111561267b5761267a61203f565b5b6126878882890161252b565b925050608086013567ffffffffffffffff8111156126a8576126a761203f565b5b6126b4888289016125c9565b9150509295509295909350565b5f67ffffffffffffffff8211156126db576126da612316565b5b602082029050602081019050919050565b5f6126fe6126f9846126c1565b612374565b90508083825260208201905060208402830185811115612721576127206124bf565b5b835b8181101561274a57806127368882612089565b845260208401935050602081019050612723565b5050509392505050565b5f82601f8301126127685761276761230e565b5b81356127788482602086016126ec565b91505092915050565b5f80604083850312156127975761279661203b565b5b5f83013567ffffffffffffffff8111156127b4576127b361203f565b5b6127c085828601612754565b925050602083013567ffffffffffffffff8111156127e1576127e061203f565b5b6127ed8582860161252b565b9150509250929050565b5f81519050919050565b5f82825260208201905092915050565b5f819050602082019050919050565b6128298161209d565b82525050565b5f61283a8383612820565b60208301905092915050565b5f602082019050919050565b5f61285c826127f7565b6128668185612801565b935061287183612811565b805f5b838110156128a1578151612888888261282f565b975061289383612846565b925050600181019050612874565b5085935050505092915050565b5f6020820190508181035f8301526128c68184612852565b905092915050565b5f805f606084860312156128e5576128e461203b565b5b5f6128f2868287016120bc565b9350506020612903868287016120bc565b925050604084013567ffffffffffffffff8111156129245761292361203f565b5b6129308682870161240d565b9150509250925092565b5f6020828403121561294f5761294e61203b565b5b5f82013567ffffffffffffffff81111561296c5761296b61203f565b5b6129788482850161240d565b91505092915050565b5f6040820190506129945f83018561210e565b6129a1602083018461210e565b9392505050565b6129b181612062565b82525050565b5f6020820190506129ca5f8301846129a8565b92915050565b6129d9816121b6565b81146129e3575f80fd5b50565b5f813590506129f4816129d0565b92915050565b5f8060408385031215612a1057612a0f61203b565b5b5f612a1d85828601612089565b9250506020612a2e858286016129e6565b9150509250929050565b5f805f60608486031215612a4f57612a4e61203b565b5b5f612a5c86828701612089565b935050602084013567ffffffffffffffff811115612a7d57612a7c61203f565b5b612a898682870161252b565b925050604084013567ffffffffffffffff811115612aaa57612aa961203f565b5b612ab68682870161252b565b9150509250925092565b5f8060408385031215612ad657612ad561203b565b5b5f612ae385828601612089565b9250506020612af485828601612089565b9150509250929050565b5f8060408385031215612b1457612b1361203b565b5b5f612b21858286016120bc565b9250506020612b32858286016120bc565b9150509250929050565b5f805f805f60a08688031215612b5557612b5461203b565b5b5f612b6288828901612089565b9550506020612b7388828901612089565b9450506040612b84888289016120bc565b9350506060612b95888289016120bc565b925050608086013567ffffffffffffffff811115612bb657612bb561203f565b5b612bc2888289016125c9565b9150509295509295909350565b5f60208284031215612be457612be361203b565b5b5f612bf184828501612089565b91505092915050565b7f4e487b71000000000000000000000000000000000000000000000000000000005f52602260045260245ffd5b5f6002820490506001821680612c3e57607f821691505b602082108103612c5157612c50612bfa565b5b50919050565b5f81905092915050565b5f819050815f5260205f209050919050565b5f8154612c7f81612c27565b612c898186612c57565b9450600182165f8114612ca35760018114612cb857612cea565b60ff1983168652811515820286019350612cea565b612cc185612c61565b5f5b83811015612ce257815481890152600182019150602081019050612cc3565b838801955050505b50505092915050565b5f612cfd82612214565b612d078185612c57565b9350612d1781856020860161222e565b80840191505092915050565b7f2e6a736f6e0000000000000000000000000000000000000000000000000000005f82015250565b5f612d57600583612c57565b9150612d6282612d23565b600582019050919050565b5f612d788285612c73565b9150612d848284612cf3565b9150612d8f82612d4b565b91508190509392505050565b5f6020601f8301049050919050565b5f82821b905092915050565b5f60088302612de57fffffffffffffffffffffffffffffffffffffffffffffffffffffffffffffffff82612daa565b612def8683612daa565b95508019841693508086168417925050509392505050565b5f819050919050565b5f612e2a612e25612e208461209d565b612e07565b61209d565b9050919050565b5f819050919050565b612e4383612e10565b612e57612e4f82612e31565b848454612db6565b825550505050565b5f90565b612e6b612e5f565b612e76818484612e3a565b505050565b5b81811015612e9957612e8e5f82612e63565b600181019050612e7c565b5050565b601f821115612ede57612eaf81612c61565b612eb884612d9b565b81016020851015612ec7578190505b612edb612ed385612d9b565b830182612e7b565b50505b505050565b5f82821c905092915050565b5f612efe5f1984600802612ee3565b1980831691505092915050565b5f612f168383612eef565b9150826002028217905092915050565b612f2f82612214565b67ffffffffffffffff811115612f4857612f47612316565b5b612f528254612c27565b612f5d828285612e9d565b5f60209050601f831160018114612f8e575f8415612f7c578287015190505b612f868582612f0b565b865550612fed565b601f198416612f9c86612c61565b5f5b82811015612fc357848901518255600182019150602085019450602081019050612f9e565b86831015612fe05784890151612fdc601f891682612eef565b8355505b6001600288020188555050505b505050505050565b5f6040820190506130085f8301856129a8565b61301560208301846129a8565b9392505050565b7f4e487b71000000000000000000000000000000000000000000000000000000005f52603260045260245ffd5b7f4e487b71000000000000000000000000000000000000000000000000000000005f52601260045260245ffd5b7f4e487b71000000000000000000000000000000000000000000000000000000005f52601160045260245ffd5b5f6130ad8261209d565b91506130b88361209d565b9250826130c8576130c7613049565b5b828204905092915050565b5f6130dd8261209d565b91506130e88361209d565b9250826130f8576130f7613049565b5b828206905092915050565b7f4c656e677468206d69736d6174636800000000000000000000000000000000005f82015250565b5f613137600f8361221e565b915061314282613103565b602082019050919050565b5f6020820190508181035f8301526131648161312b565b9050919050565b5f6040820190508181035f8301526131838185612852565b905081810360208301526131978184612852565b90509392505050565b7f4974656d206e756d62657220746f6f206c6172676500000000000000000000005f82015250565b5f6131d460158361221e565b91506131df826131a0565b602082019050919050565b5f6020820190508181035f830152613201816131c8565b9050919050565b5f6132128261209d565b915061321d8361209d565b925082820261322b8161209d565b9150828204841483151761324257613241613076565b5b5092915050565b5f6132538261209d565b915061325e8361209d565b925082820190508082111561327657613275613076565b5b92915050565b5f60808201905061328f5f8301876129a8565b61329c602083018661210e565b6132a9604083018561210e565b6132b6606083018461210e565b95945050505050565b5f81519050919050565b5f82825260208201905092915050565b5f6132e3826132bf565b6132ed81856132c9565b93506132fd81856020860161222e565b61330681612256565b840191505092915050565b5f60a0820190506133245f8301886129a8565b61333160208301876129a8565b61333e604083018661210e565b61334b606083018561210e565b818103608083015261335d81846132d9565b90509695505050505050565b5f8151905061337781612161565b92915050565b5f602082840312156133925761339161203b565b5b5f61339f84828501613369565b91505092915050565b5f60a0820190506133bb5f8301886129a8565b6133c860208301876129a8565b81810360408301526133da8186612852565b905081810360608301526133ee8185612852565b9050818103608083015261340281846132d9565b9050969550505050505056fea264697066735822122053ee79ba518cfa33386bc569fcc67f793e88f3e23986325c2046995069b56a2f64736f6c63430008180033","linkReferences":{}},"methodIdentifiers":{"EDITION_MULTIPLIER()":"1b859cb2","balanceOf(address,uint256)":"00fdd58e","balanceOfBatch(address[],uint256[])":"4e1273f4","baseURI()":"6c0360eb","bookURI(uint256,uint256)":"f154da38","decodeTokenId(uint256)":"7efd9112","encodeTokenId(uint256,uint256)":"ebd46d64","isApprovedForAll(address,address)":"e985e9c5","mint(address,uint256,uint256)":"156e29f6","mintBatch(address,uint256[],uint256[])":"d81d0a15","owner()":"8da5cb5b","renounceOwnership()":"715018a6","safeBatchTransferFrom(address,address,uint256[],uint256[],bytes)":"2eb2c2d6","safeTransferFrom(address,address,uint256,uint256,bytes)":"f242432a","setApprovalForAll(address,bool)":"a22cb465","setBaseURI(string)":"55f804b3","setTokenURI(uint256,string)":"162094c4","setTokenURI(uint256,uint256,string)":"53bb0ab3","supportsInterface(bytes4)":"01ffc9a7","transferOwnership(address)":"f2fde38b","uri(uint256)":"0e89341c"},"id":19}